{
  "_format": "hh-sol-artifact-1",
  "contractName": "DAOGovernance",
  "sourceName": "contracts/governance/DAOGovernance.sol",
  "abi": [
    {
      "inputs": [],
      "stateMutability": "nonpayable",
      "type": "constructor"
    },
    {
      "inputs": [],
      "name": "AccessControlBadConfirmation",
      "type": "error"
    },
    {
      "inputs": [
        {
          "internalType": "address",
          "name": "account",
          "type": "address"
        },
        {
          "internalType": "bytes32",
          "name": "neededRole",
          "type": "bytes32"
        }
      ],
      "name": "AccessControlUnauthorizedAccount",
      "type": "error"
    },
    {
      "inputs": [],
      "name": "ReentrancyGuardReentrantCall",
      "type": "error"
    },
    {
      "anonymous": false,
      "inputs": [
        {
          "indexed": true,
          "internalType": "uint256",
          "name": "id",
          "type": "uint256"
        }
      ],
      "name": "CallExecuted",
      "type": "event"
    },
    {
      "anonymous": false,
      "inputs": [
        {
          "indexed": true,
          "internalType": "uint256",
          "name": "id",
          "type": "uint256"
        },
        {
          "indexed": false,
          "internalType": "uint256",
          "name": "eta",
          "type": "uint256"
        }
      ],
      "name": "CallQueued",
      "type": "event"
    },
    {
      "anonymous": false,
      "inputs": [
        {
          "indexed": false,
          "internalType": "address",
          "name": "from",
          "type": "address"
        },
        {
          "indexed": false,
          "internalType": "uint256",
          "name": "amount",
          "type": "uint256"
        }
      ],
      "name": "FundsReceived",
      "type": "event"
    },
    {
      "anonymous": false,
      "inputs": [
        {
          "indexed": false,
          "internalType": "address",
          "name": "to",
          "type": "address"
        },
        {
          "indexed": false,
          "internalType": "uint256",
          "name": "amount",
          "type": "uint256"
        }
      ],
      "name": "FundsReleased",
      "type": "event"
    },
    {
      "anonymous": false,
      "inputs": [
        {
          "indexed": true,
          "internalType": "uint256",
          "name": "id",
          "type": "uint256"
        },
        {
          "indexed": true,
          "internalType": "address",
          "name": "proposer",
          "type": "address"
        },
        {
          "indexed": false,
          "internalType": "enum IGovernance.ProposalType",
          "name": "pType",
          "type": "uint8"
        },
        {
          "indexed": false,
          "internalType": "uint256",
          "name": "amount",
          "type": "uint256"
        }
      ],
      "name": "ProposalCreated",
      "type": "event"
    },
    {
      "anonymous": false,
      "inputs": [
        {
          "indexed": true,
          "internalType": "uint256",
          "name": "id",
          "type": "uint256"
        }
      ],
      "name": "ProposalExecuted",
      "type": "event"
    },
    {
      "anonymous": false,
      "inputs": [
        {
          "indexed": true,
          "internalType": "uint256",
          "name": "id",
          "type": "uint256"
        },
        {
          "indexed": false,
          "internalType": "uint256",
          "name": "eta",
          "type": "uint256"
        }
      ],
      "name": "ProposalQueued",
      "type": "event"
    },
    {
      "anonymous": false,
      "inputs": [
        {
          "indexed": true,
          "internalType": "bytes32",
          "name": "role",
          "type": "bytes32"
        },
        {
          "indexed": true,
          "internalType": "bytes32",
          "name": "previousAdminRole",
          "type": "bytes32"
        },
        {
          "indexed": true,
          "internalType": "bytes32",
          "name": "newAdminRole",
          "type": "bytes32"
        }
      ],
      "name": "RoleAdminChanged",
      "type": "event"
    },
    {
      "anonymous": false,
      "inputs": [
        {
          "indexed": true,
          "internalType": "bytes32",
          "name": "role",
          "type": "bytes32"
        },
        {
          "indexed": true,
          "internalType": "address",
          "name": "account",
          "type": "address"
        },
        {
          "indexed": true,
          "internalType": "address",
          "name": "sender",
          "type": "address"
        }
      ],
      "name": "RoleGranted",
      "type": "event"
    },
    {
      "anonymous": false,
      "inputs": [
        {
          "indexed": true,
          "internalType": "bytes32",
          "name": "role",
          "type": "bytes32"
        },
        {
          "indexed": true,
          "internalType": "address",
          "name": "account",
          "type": "address"
        },
        {
          "indexed": true,
          "internalType": "address",
          "name": "sender",
          "type": "address"
        }
      ],
      "name": "RoleRevoked",
      "type": "event"
    },
    {
      "anonymous": false,
      "inputs": [
        {
          "indexed": true,
          "internalType": "uint256",
          "name": "id",
          "type": "uint256"
        },
        {
          "indexed": true,
          "internalType": "address",
          "name": "voter",
          "type": "address"
        },
        {
          "indexed": false,
          "internalType": "uint8",
          "name": "support",
          "type": "uint8"
        },
        {
          "indexed": false,
          "internalType": "uint256",
          "name": "weight",
          "type": "uint256"
        }
      ],
      "name": "VoteCast",
      "type": "event"
    },
    {
      "inputs": [],
      "name": "DEFAULT_ADMIN_ROLE",
      "outputs": [
        {
          "internalType": "bytes32",
          "name": "",
          "type": "bytes32"
        }
      ],
      "stateMutability": "view",
      "type": "function"
    },
    {
      "inputs": [],
      "name": "EXECUTOR_ROLE",
      "outputs": [
        {
          "internalType": "bytes32",
          "name": "",
          "type": "bytes32"
        }
      ],
      "stateMutability": "view",
      "type": "function"
    },
    {
      "inputs": [],
      "name": "GRACE_PERIOD",
      "outputs": [
        {
          "internalType": "uint256",
          "name": "",
          "type": "uint256"
        }
      ],
      "stateMutability": "view",
      "type": "function"
    },
    {
      "inputs": [],
      "name": "MIN_PROPOSAL_STAKE",
      "outputs": [
        {
          "internalType": "uint256",
          "name": "",
          "type": "uint256"
        }
      ],
      "stateMutability": "view",
      "type": "function"
    },
    {
      "inputs": [],
      "name": "PROPOSER_ROLE",
      "outputs": [
        {
          "internalType": "bytes32",
          "name": "",
          "type": "bytes32"
        }
      ],
      "stateMutability": "view",
      "type": "function"
    },
    {
      "inputs": [
        {
          "internalType": "uint256",
          "name": "proposalId",
          "type": "uint256"
        },
        {
          "internalType": "uint8",
          "name": "support",
          "type": "uint8"
        }
      ],
      "name": "castVote",
      "outputs": [],
      "stateMutability": "nonpayable",
      "type": "function"
    },
    {
      "inputs": [],
      "name": "deposit",
      "outputs": [],
      "stateMutability": "payable",
      "type": "function"
    },
    {
      "inputs": [
        {
          "internalType": "uint256",
          "name": "proposalId",
          "type": "uint256"
        }
      ],
      "name": "execute",
      "outputs": [],
      "stateMutability": "nonpayable",
      "type": "function"
    },
    {
      "inputs": [],
      "name": "getBalance",
      "outputs": [
        {
          "internalType": "uint256",
          "name": "",
          "type": "uint256"
        }
      ],
      "stateMutability": "view",
      "type": "function"
    },
    {
      "inputs": [
        {
          "internalType": "uint256",
          "name": "proposalId",
          "type": "uint256"
        }
      ],
      "name": "getProposalState",
      "outputs": [
        {
          "internalType": "enum IGovernance.ProposalState",
          "name": "",
          "type": "uint8"
        }
      ],
      "stateMutability": "view",
      "type": "function"
    },
    {
      "inputs": [
        {
          "internalType": "bytes32",
          "name": "role",
          "type": "bytes32"
        }
      ],
      "name": "getRoleAdmin",
      "outputs": [
        {
          "internalType": "bytes32",
          "name": "",
          "type": "bytes32"
        }
      ],
      "stateMutability": "view",
      "type": "function"
    },
    {
      "inputs": [
        {
          "internalType": "address",
          "name": "memberAddr",
          "type": "address"
        }
      ],
      "name": "getVotingPower",
      "outputs": [
        {
          "internalType": "uint256",
          "name": "",
          "type": "uint256"
        }
      ],
      "stateMutability": "view",
      "type": "function"
    },
    {
      "inputs": [
        {
          "internalType": "bytes32",
          "name": "role",
          "type": "bytes32"
        },
        {
          "internalType": "address",
          "name": "account",
          "type": "address"
        }
      ],
      "name": "grantRole",
      "outputs": [],
      "stateMutability": "nonpayable",
      "type": "function"
    },
    {
      "inputs": [
        {
          "internalType": "bytes32",
          "name": "role",
          "type": "bytes32"
        },
        {
          "internalType": "address",
          "name": "account",
          "type": "address"
        }
      ],
      "name": "hasRole",
      "outputs": [
        {
          "internalType": "bool",
          "name": "",
          "type": "bool"
        }
      ],
      "stateMutability": "view",
      "type": "function"
    },
    {
      "inputs": [
        {
          "internalType": "uint256",
          "name": "id",
          "type": "uint256"
        }
      ],
      "name": "isReady",
      "outputs": [
        {
          "internalType": "bool",
          "name": "",
          "type": "bool"
        }
      ],
      "stateMutability": "view",
      "type": "function"
    },
    {
      "inputs": [
        {
          "internalType": "enum IGovernance.ProposalType",
          "name": "pType",
          "type": "uint8"
        },
        {
          "internalType": "address",
          "name": "recipient",
          "type": "address"
        },
        {
          "internalType": "uint256",
          "name": "amount",
          "type": "uint256"
        },
        {
          "internalType": "string",
          "name": "description",
          "type": "string"
        }
      ],
      "name": "propose",
      "outputs": [
        {
          "internalType": "uint256",
          "name": "",
          "type": "uint256"
        }
      ],
      "stateMutability": "nonpayable",
      "type": "function"
    },
    {
      "inputs": [
        {
          "internalType": "uint256",
          "name": "proposalId",
          "type": "uint256"
        }
      ],
      "name": "queue",
      "outputs": [],
      "stateMutability": "nonpayable",
      "type": "function"
    },
    {
      "inputs": [
        {
          "internalType": "bytes32",
          "name": "role",
          "type": "bytes32"
        },
        {
          "internalType": "address",
          "name": "callerConfirmation",
          "type": "address"
        }
      ],
      "name": "renounceRole",
      "outputs": [],
      "stateMutability": "nonpayable",
      "type": "function"
    },
    {
      "inputs": [
        {
          "internalType": "bytes32",
          "name": "role",
          "type": "bytes32"
        },
        {
          "internalType": "address",
          "name": "account",
          "type": "address"
        }
      ],
      "name": "revokeRole",
      "outputs": [],
      "stateMutability": "nonpayable",
      "type": "function"
    },
    {
      "inputs": [
        {
          "internalType": "bytes4",
          "name": "interfaceId",
          "type": "bytes4"
        }
      ],
      "name": "supportsInterface",
      "outputs": [
        {
          "internalType": "bool",
          "name": "",
          "type": "bool"
        }
      ],
      "stateMutability": "view",
      "type": "function"
    },
    {
      "inputs": [
        {
          "internalType": "uint256",
          "name": "",
          "type": "uint256"
        }
      ],
      "name": "timestamps",
      "outputs": [
        {
          "internalType": "uint256",
          "name": "",
          "type": "uint256"
        }
      ],
      "stateMutability": "view",
      "type": "function"
    },
    {
      "inputs": [
        {
          "internalType": "enum IGovernance.ProposalType",
          "name": "",
          "type": "uint8"
        }
      ],
      "name": "typeConfigs",
      "outputs": [
        {
          "internalType": "uint256",
          "name": "approvalPct",
          "type": "uint256"
        },
        {
          "internalType": "uint256",
          "name": "quorumPct",
          "type": "uint256"
        },
        {
          "internalType": "uint256",
          "name": "delay",
          "type": "uint256"
        }
      ],
      "stateMutability": "view",
      "type": "function"
    },
    {
      "stateMutability": "payable",
      "type": "receive"
    }
  ],
  "bytecode": "0x60806040523480156200001157600080fd5b5060016000819055506200002f6000801b33620001b160201b60201c565b506040518060600160405280603c81526020016028815260200162093a80815250600760008060028111156200006a576200006962000327565b5b60028111156200007f576200007e62000327565b5b8152602001908152602001600020600082015181600001556020820151816001015560408201518160020155905050604051806060016040528060328152602001601981526020016203f4808152506007600060016002811115620000e957620000e862000327565b5b6002811115620000fe57620000fd62000327565b5b8152602001908152602001600020600082015181600001556020820151816001015560408201518160020155905050604051806060016040528060328152602001600f8152602001620151808152506007600060028081111562000167576200016662000327565b5b60028111156200017c576200017b62000327565b5b815260200190815260200160002060008201518160000155602082015181600101556040820151816002015590505062000356565b6000620001c58383620002b460201b60201c565b620002a957600180600085815260200190815260200160002060000160008473ffffffffffffffffffffffffffffffffffffffff1673ffffffffffffffffffffffffffffffffffffffff16815260200190815260200160002060006101000a81548160ff021916908315150217905550620002456200031f60201b60201c565b73ffffffffffffffffffffffffffffffffffffffff168273ffffffffffffffffffffffffffffffffffffffff16847f2f8788117e7eff1d82e926ec794901d17c78024a50270940304540a733656f0d60405160405180910390a460019050620002ae565b600090505b92915050565b60006001600084815260200190815260200160002060000160008373ffffffffffffffffffffffffffffffffffffffff1673ffffffffffffffffffffffffffffffffffffffff16815260200190815260200160002060009054906101000a900460ff16905092915050565b600033905090565b7f4e487b7100000000000000000000000000000000000000000000000000000000600052602160045260246000fd5b61269880620003666000396000f3fe6080604052600436106101395760003560e01c80639080936f116100ab578063bb4d44361161006f578063bb4d4436146104ba578063c1a287e2146104f7578063d0e30db014610522578063d547741f1461052c578063ddf0b00914610555578063fe0d94c11461057e57610179565b80639080936f1461039957806391d14854146103d65780639fdeeecb14610413578063a1ee039414610450578063a217fddf1461048f57610179565b806336568abe116100fd57806336568abe1461027757806350df8f71146102a057806356781388146102dd5780636e6a6263146103065780638bc33af3146103315780638f61f4f51461036e57610179565b806301ffc9a71461017e57806307bd0265146101bb57806312065fe0146101e6578063248a9ca3146102115780632f2ff15d1461024e57610179565b36610179577f8e47b87b0ef542cdfa1659c551d88bad38aa7f452d2bbb349ab7530dfec8be8f333460405161016f929190611783565b60405180910390a1005b600080fd5b34801561018a57600080fd5b506101a560048036038101906101a0919061180e565b6105a7565b6040516101b29190611856565b60405180910390f35b3480156101c757600080fd5b506101d0610621565b6040516101dd919061188a565b60405180910390f35b3480156101f257600080fd5b506101fb610645565b60405161020891906118a5565b60405180910390f35b34801561021d57600080fd5b50610238600480360381019061023391906118ec565b61064d565b604051610245919061188a565b60405180910390f35b34801561025a57600080fd5b5061027560048036038101906102709190611945565b61066d565b005b34801561028357600080fd5b5061029e60048036038101906102999190611945565b61068f565b005b3480156102ac57600080fd5b506102c760048036038101906102c291906119b1565b61070a565b6040516102d49190611856565b60405180910390f35b3480156102e957600080fd5b5061030460048036038101906102ff9190611a17565b610776565b005b34801561031257600080fd5b5061031b6109bc565b60405161032891906118a5565b60405180910390f35b34801561033d57600080fd5b50610358600480360381019061035391906119b1565b6109c8565b60405161036591906118a5565b60405180910390f35b34801561037a57600080fd5b506103836109e0565b604051610390919061188a565b60405180910390f35b3480156103a557600080fd5b506103c060048036038101906103bb91906119b1565b610a04565b6040516103cd9190611ace565b60405180910390f35b3480156103e257600080fd5b506103fd60048036038101906103f89190611945565b610b78565b60405161040a9190611856565b60405180910390f35b34801561041f57600080fd5b5061043a60048036038101906104359190611b73565b610be3565b60405161044791906118a5565b60405180910390f35b34801561045c57600080fd5b5061047760048036038101906104729190611bfb565b610dcc565b60405161048693929190611c28565b60405180910390f35b34801561049b57600080fd5b506104a4610df6565b6040516104b1919061188a565b60405180910390f35b3480156104c657600080fd5b506104e160048036038101906104dc9190611c5f565b610dfd565b6040516104ee91906118a5565b60405180910390f35b34801561050357600080fd5b5061050c610ea0565b60405161051991906118a5565b60405180910390f35b61052a610ea7565b005b34801561053857600080fd5b50610553600480360381019061054e9190611945565b610f7e565b005b34801561056157600080fd5b5061057c600480360381019061057791906119b1565b610fa0565b005b34801561058a57600080fd5b506105a560048036038101906105a091906119b1565b6110c8565b005b60007f7965db0b000000000000000000000000000000000000000000000000000000007bffffffffffffffffffffffffffffffffffffffffffffffffffffffff1916827bffffffffffffffffffffffffffffffffffffffffffffffffffffffff1916148061061a575061061982611217565b5b9050919050565b7fd8aa0f3194971a2a116679f7c2090f6939c8d4e01a2a8d7e41d55e5351469e6381565b600047905090565b600060016000838152602001908152602001600020600101549050919050565b6106768261064d565b61067f81611281565b6106898383611295565b50505050565b610697611386565b73ffffffffffffffffffffffffffffffffffffffff168173ffffffffffffffffffffffffffffffffffffffff16146106fb576040517f6697b23200000000000000000000000000000000000000000000000000000000815260040160405180910390fd5b610705828261138e565b505050565b600080600360008481526020019081526020016000205414158015610742575060036000838152602001908152602001600020544210155b801561076f57506203f480600360008481526020019081526020016000205461076b9190611cbb565b4211155b9050919050565b6001600681111561078a57610789611a57565b5b61079383610a04565b60068111156107a5576107a4611a57565b5b146107e5576040517f08c379a00000000000000000000000000000000000000000000000000000000081526004016107dc90611d4c565b60405180910390fd5b600060026000848152602001908152602001600020905080600b0160003373ffffffffffffffffffffffffffffffffffffffff1673ffffffffffffffffffffffffffffffffffffffff16815260200190815260200160002060009054906101000a900460ff161561088b576040517f08c379a000000000000000000000000000000000000000000000000000000000815260040161088290611db8565b60405180910390fd5b600061089633610dfd565b9050600182600b0160003373ffffffffffffffffffffffffffffffffffffffff1673ffffffffffffffffffffffffffffffffffffffff16815260200190815260200160002060006101000a81548160ff02191690831515021790555060018360ff160361091d57808260070160008282546109119190611cbb565b92505081905550610965565b60008360ff1603610948578082600801600082825461093c9190611cbb565b92505081905550610964565b8082600901600082825461095c9190611cbb565b925050819055505b5b3373ffffffffffffffffffffffffffffffffffffffff16847fb83d25c6a5d258561330739951487acb4bd09ba5190b5d32c4f261817d90679285846040516109ae929190611de7565b60405180910390a350505050565b674563918244f4000081565b60036020528060005260406000206000915090505481565b7fb09aa5aeb3702cfd50b6b62bc4532604938f21248a27a1d5ca736082b6819cc181565b60008060026000848152602001908152602001600020905080600a0160009054906101000a900460ff1615610a3d576005915050610b73565b6000600360008581526020019081526020016000205414610a62576004915050610b73565b80600601544311158015610a7a575080600501544310155b15610a89576001915050610b73565b6000600760008360010160149054906101000a900460ff166002811115610ab357610ab2611a57565b5b6002811115610ac557610ac4611a57565b5b8152602001908152602001600020604051806060016040529081600082015481526020016001820154815260200160028201548152505090506000826009015483600801548460070154610b199190611cbb565b610b239190611cbb565b905060008103610b395760029350505050610b73565b81600001518160648560070154610b509190611e10565b610b5a9190611e81565b10610b6b5760039350505050610b73565b600293505050505b919050565b60006001600084815260200190815260200160002060000160008373ffffffffffffffffffffffffffffffffffffffff1673ffffffffffffffffffffffffffffffffffffffff16815260200190815260200160002060009054906101000a900460ff16905092915050565b6000610bf6674563918244f40000611481565b610bff33610dfd565b1015610c40576040517f08c379a0000000000000000000000000000000000000000000000000000000008152600401610c3790611efe565b60405180910390fd5b60066000815480929190610c5390611f1e565b9190505550600060065490506000600260008381526020019081526020016000209050818160000181905550338160010160006101000a81548173ffffffffffffffffffffffffffffffffffffffff021916908373ffffffffffffffffffffffffffffffffffffffff160217905550868160020160006101000a81548173ffffffffffffffffffffffffffffffffffffffff021916908373ffffffffffffffffffffffffffffffffffffffff1602179055508581600301819055508484826004019182610d219291906121ac565b50878160010160146101000a81548160ff02191690836002811115610d4957610d48611a57565b5b021790555043816005018190555061c4e043610d659190611cbb565b81600601819055503373ffffffffffffffffffffffffffffffffffffffff16827f89f2ccbe5ce8017189037c67b330b3c300aea4d3f98bf76108c6c8921dbf4ad98a89604051610db69291906122c4565b60405180910390a3819250505095945050505050565b60076020528060005260406000206000915090508060000154908060010154908060020154905083565b6000801b81565b600080600460008473ffffffffffffffffffffffffffffffffffffffff1673ffffffffffffffffffffffffffffffffffffffff168152602001908152602001600020600001549050600560008473ffffffffffffffffffffffffffffffffffffffff1673ffffffffffffffffffffffffffffffffffffffff16815260200190815260200160002054610e8e82611481565b610e989190611cbb565b915050919050565b6203f48081565b60003411610eea576040517f08c379a0000000000000000000000000000000000000000000000000000000008152600401610ee190612339565b60405180910390fd5b34600460003373ffffffffffffffffffffffffffffffffffffffff1673ffffffffffffffffffffffffffffffffffffffff1681526020019081526020016000206000016000828254610f3c9190611cbb565b925050819055507f8e47b87b0ef542cdfa1659c551d88bad38aa7f452d2bbb349ab7530dfec8be8f3334604051610f74929190611783565b60405180910390a1565b610f878261064d565b610f9081611281565b610f9a838361138e565b50505050565b60036006811115610fb457610fb3611a57565b5b610fbd82610a04565b6006811115610fcf57610fce611a57565b5b1461100f576040517f08c379a0000000000000000000000000000000000000000000000000000000008152600401611006906123a5565b60405180910390fd5b60006002600083815260200190815260200160002090506000600760008360010160149054906101000a900460ff1660028111156110505761104f611a57565b5b600281111561106257611061611a57565b5b815260200190815260200160002060020154905061108083826114f6565b827f9a2e42fd6722813d69113e7d0079d3d940171428df7373df9c7f7617cfda289282426110ae9190611cbb565b6040516110bb91906118a5565b60405180910390a2505050565b6000801b6110d581611281565b6110dd61155b565b6110e68261070a565b611125576040517f08c379a000000000000000000000000000000000000000000000000000000000815260040161111c90612411565b60405180910390fd5b600060026000848152602001908152602001600020905080600a0160009054906101000a900460ff161561118e576040517f08c379a00000000000000000000000000000000000000000000000000000000081526004016111859061247d565b60405180910390fd5b600181600a0160006101000a81548160ff0219169083151502179055506111dd8160020160009054906101000a900473ffffffffffffffffffffffffffffffffffffffff1682600301546115a1565b827f712ae1383f79ac853f8d882153778e0260ef8f03b504e2866e0593e04d2b291f60405160405180910390a2506112136116ce565b5050565b60007f01ffc9a7000000000000000000000000000000000000000000000000000000007bffffffffffffffffffffffffffffffffffffffffffffffffffffffff1916827bffffffffffffffffffffffffffffffffffffffffffffffffffffffff1916149050919050565b6112928161128d611386565b6116d8565b50565b60006112a18383610b78565b61137b57600180600085815260200190815260200160002060000160008473ffffffffffffffffffffffffffffffffffffffff1673ffffffffffffffffffffffffffffffffffffffff16815260200190815260200160002060006101000a81548160ff021916908315150217905550611318611386565b73ffffffffffffffffffffffffffffffffffffffff168273ffffffffffffffffffffffffffffffffffffffff16847f2f8788117e7eff1d82e926ec794901d17c78024a50270940304540a733656f0d60405160405180910390a460019050611380565b600090505b92915050565b600033905090565b600061139a8383610b78565b156114765760006001600085815260200190815260200160002060000160008473ffffffffffffffffffffffffffffffffffffffff1673ffffffffffffffffffffffffffffffffffffffff16815260200190815260200160002060006101000a81548160ff021916908315150217905550611413611386565b73ffffffffffffffffffffffffffffffffffffffff168273ffffffffffffffffffffffffffffffffffffffff16847ff6391f5c32d9c69d2a47ea670b442974b53935d1edc7fd64eb21e047a839171b60405160405180910390a46001905061147b565b600090505b92915050565b600080820361149357600090506114f1565b600060026001846114a49190611cbb565b6114ae9190611e81565b905060008390505b808210156114eb5781905060028283866114d09190611e81565b6114da9190611cbb565b6114e49190611e81565b91506114b6565b80925050505b919050565b600081426115049190611cbb565b9050806003600085815260200190815260200160002081905550827f711c2ae7bf378881f828f05aca1f8528803c05974edeecbbc8890a3f4c496bc98260405161154e91906118a5565b60405180910390a2505050565b600260005403611597576040517f3ee5aeb500000000000000000000000000000000000000000000000000000000815260040160405180910390fd5b6002600081905550565b804710156115e4576040517f08c379a00000000000000000000000000000000000000000000000000000000081526004016115db906124e9565b60405180910390fd5b60008273ffffffffffffffffffffffffffffffffffffffff168260405161160a9061253a565b60006040518083038185875af1925050503d8060008114611647576040519150601f19603f3d011682016040523d82523d6000602084013e61164c565b606091505b5050905080611690576040517f08c379a00000000000000000000000000000000000000000000000000000000081526004016116879061259b565b60405180910390fd5b7f221c08a06b07a64803b3787861a3f276212fcccb51c2e6234077a9b8cb13047a83836040516116c1929190612610565b60405180910390a1505050565b6001600081905550565b6116e28282610b78565b6117255780826040517fe2517d3f00000000000000000000000000000000000000000000000000000000815260040161171c929190612639565b60405180910390fd5b5050565b600073ffffffffffffffffffffffffffffffffffffffff82169050919050565b600061175482611729565b9050919050565b61176481611749565b82525050565b6000819050919050565b61177d8161176a565b82525050565b6000604082019050611798600083018561175b565b6117a56020830184611774565b9392505050565b600080fd5b600080fd5b60007fffffffff0000000000000000000000000000000000000000000000000000000082169050919050565b6117eb816117b6565b81146117f657600080fd5b50565b600081359050611808816117e2565b92915050565b600060208284031215611824576118236117ac565b5b6000611832848285016117f9565b91505092915050565b60008115159050919050565b6118508161183b565b82525050565b600060208201905061186b6000830184611847565b92915050565b6000819050919050565b61188481611871565b82525050565b600060208201905061189f600083018461187b565b92915050565b60006020820190506118ba6000830184611774565b92915050565b6118c981611871565b81146118d457600080fd5b50565b6000813590506118e6816118c0565b92915050565b600060208284031215611902576119016117ac565b5b6000611910848285016118d7565b91505092915050565b61192281611749565b811461192d57600080fd5b50565b60008135905061193f81611919565b92915050565b6000806040838503121561195c5761195b6117ac565b5b600061196a858286016118d7565b925050602061197b85828601611930565b9150509250929050565b61198e8161176a565b811461199957600080fd5b50565b6000813590506119ab81611985565b92915050565b6000602082840312156119c7576119c66117ac565b5b60006119d58482850161199c565b91505092915050565b600060ff82169050919050565b6119f4816119de565b81146119ff57600080fd5b50565b600081359050611a11816119eb565b92915050565b60008060408385031215611a2e57611a2d6117ac565b5b6000611a3c8582860161199c565b9250506020611a4d85828601611a02565b9150509250929050565b7f4e487b7100000000000000000000000000000000000000000000000000000000600052602160045260246000fd5b60078110611a9757611a96611a57565b5b50565b6000819050611aa882611a86565b919050565b6000611ab882611a9a565b9050919050565b611ac881611aad565b82525050565b6000602082019050611ae36000830184611abf565b92915050565b60038110611af657600080fd5b50565b600081359050611b0881611ae9565b92915050565b600080fd5b600080fd5b600080fd5b60008083601f840112611b3357611b32611b0e565b5b8235905067ffffffffffffffff811115611b5057611b4f611b13565b5b602083019150836001820283011115611b6c57611b6b611b18565b5b9250929050565b600080600080600060808688031215611b8f57611b8e6117ac565b5b6000611b9d88828901611af9565b9550506020611bae88828901611930565b9450506040611bbf8882890161199c565b935050606086013567ffffffffffffffff811115611be057611bdf6117b1565b5b611bec88828901611b1d565b92509250509295509295909350565b600060208284031215611c1157611c106117ac565b5b6000611c1f84828501611af9565b91505092915050565b6000606082019050611c3d6000830186611774565b611c4a6020830185611774565b611c576040830184611774565b949350505050565b600060208284031215611c7557611c746117ac565b5b6000611c8384828501611930565b91505092915050565b7f4e487b7100000000000000000000000000000000000000000000000000000000600052601160045260246000fd5b6000611cc68261176a565b9150611cd18361176a565b9250828201905080821115611ce957611ce8611c8c565b5b92915050565b600082825260208201905092915050565b7f4e6f742061637469766500000000000000000000000000000000000000000000600082015250565b6000611d36600a83611cef565b9150611d4182611d00565b602082019050919050565b60006020820190508181036000830152611d6581611d29565b9050919050565b7f566f746564000000000000000000000000000000000000000000000000000000600082015250565b6000611da2600583611cef565b9150611dad82611d6c565b602082019050919050565b60006020820190508181036000830152611dd181611d95565b9050919050565b611de1816119de565b82525050565b6000604082019050611dfc6000830185611dd8565b611e096020830184611774565b9392505050565b6000611e1b8261176a565b9150611e268361176a565b9250828202611e348161176a565b91508282048414831517611e4b57611e4a611c8c565b5b5092915050565b7f4e487b7100000000000000000000000000000000000000000000000000000000600052601260045260246000fd5b6000611e8c8261176a565b9150611e978361176a565b925082611ea757611ea6611e52565b5b828204905092915050565b7f5374616b65206c6f770000000000000000000000000000000000000000000000600082015250565b6000611ee8600983611cef565b9150611ef382611eb2565b602082019050919050565b60006020820190508181036000830152611f1781611edb565b9050919050565b6000611f298261176a565b91507fffffffffffffffffffffffffffffffffffffffffffffffffffffffffffffffff8203611f5b57611f5a611c8c565b5b600182019050919050565b600082905092915050565b7f4e487b7100000000000000000000000000000000000000000000000000000000600052604160045260246000fd5b7f4e487b7100000000000000000000000000000000000000000000000000000000600052602260045260246000fd5b60006002820490506001821680611fe757607f821691505b602082108103611ffa57611ff9611fa0565b5b50919050565b60008190508160005260206000209050919050565b60006020601f8301049050919050565b600082821b905092915050565b6000600883026120627fffffffffffffffffffffffffffffffffffffffffffffffffffffffffffffffff82612025565b61206c8683612025565b95508019841693508086168417925050509392505050565b6000819050919050565b60006120a96120a461209f8461176a565b612084565b61176a565b9050919050565b6000819050919050565b6120c38361208e565b6120d76120cf826120b0565b848454612032565b825550505050565b600090565b6120ec6120df565b6120f78184846120ba565b505050565b5b8181101561211b576121106000826120e4565b6001810190506120fd565b5050565b601f8211156121605761213181612000565b61213a84612015565b81016020851015612149578190505b61215d61215585612015565b8301826120fc565b50505b505050565b600082821c905092915050565b600061218360001984600802612165565b1980831691505092915050565b600061219c8383612172565b9150826002028217905092915050565b6121b68383611f66565b67ffffffffffffffff8111156121cf576121ce611f71565b5b6121d98254611fcf565b6121e482828561211f565b6000601f8311600181146122135760008415612201578287013590505b61220b8582612190565b865550612273565b601f19841661222186612000565b60005b8281101561224957848901358255600182019150602085019450602081019050612224565b868310156122665784890135612262601f891682612172565b8355505b6001600288020188555050505b50505050505050565b6003811061228d5761228c611a57565b5b50565b600081905061229e8261227c565b919050565b60006122ae82612290565b9050919050565b6122be816122a3565b82525050565b60006040820190506122d960008301856122b5565b6122e66020830184611774565b9392505050565b7f4d757374207374616b6520736f6d652045544800000000000000000000000000600082015250565b6000612323601383611cef565b915061232e826122ed565b602082019050919050565b6000602082019050818103600083015261235281612316565b9050919050565b7f4e6f742070617373656400000000000000000000000000000000000000000000600082015250565b600061238f600a83611cef565b915061239a82612359565b602082019050919050565b600060208201905081810360008301526123be81612382565b9050919050565b7f54696d656c6f636b000000000000000000000000000000000000000000000000600082015250565b60006123fb600883611cef565b9150612406826123c5565b602082019050919050565b6000602082019050818103600083015261242a816123ee565b9050919050565b7f4578656375746564000000000000000000000000000000000000000000000000600082015250565b6000612467600883611cef565b915061247282612431565b602082019050919050565b600060208201905081810360008301526124968161245a565b9050919050565b7f54726561737572793a20496e73756666696369656e742062616c616e63650000600082015250565b60006124d3601e83611cef565b91506124de8261249d565b602082019050919050565b60006020820190508181036000830152612502816124c6565b9050919050565b600081905092915050565b50565b6000612524600083612509565b915061252f82612514565b600082019050919050565b600061254582612517565b9150819050919050565b7f54726561737572793a205472616e73666572206661696c656400000000000000600082015250565b6000612585601983611cef565b91506125908261254f565b602082019050919050565b600060208201905081810360008301526125b481612578565b9050919050565b60006125d66125d16125cc84611729565b612084565b611729565b9050919050565b60006125e8826125bb565b9050919050565b60006125fa826125dd565b9050919050565b61260a816125ef565b82525050565b60006040820190506126256000830185612601565b6126326020830184611774565b9392505050565b600060408201905061264e600083018561175b565b61265b602083018461187b565b939250505056fea264697066735822122012039a97ff67488b01d8ce3b2bf0d8c73a3770773b2bc96639d00741fe39ffad64736f6c63430008140033",
  "linkReferences": {},
  "deployedLinkReferences": {}
}